{
  "_format": "hh-sol-artifact-1",
  "contractName": "ESGRegistry",
  "sourceName": "contracts/ESGRegistry.sol",
  "abi": [
    {
      "inputs": [],
      "stateMutability": "nonpayable",
      "type": "constructor"
    },
    {
      "inputs": [
        {
          "internalType": "address",
          "name": "owner",
          "type": "address"
        }
      ],
      "name": "OwnableInvalidOwner",
      "type": "error"
    },
    {
      "inputs": [
        {
          "internalType": "address",
          "name": "account",
          "type": "address"
        }
      ],
      "name": "OwnableUnauthorizedAccount",
      "type": "error"
    },
    {
      "anonymous": false,
      "inputs": [
        {
          "indexed": true,
          "internalType": "address",
          "name": "previousOwner",
          "type": "address"
        },
        {
          "indexed": true,
          "internalType": "address",
          "name": "newOwner",
          "type": "address"
        }
      ],
      "name": "OwnershipTransferred",
      "type": "event"
    },
    {
      "anonymous": false,
      "inputs": [
        {
          "indexed": true,
          "internalType": "bytes32",
          "name": "reportId",
          "type": "bytes32"
        },
        {
          "indexed": false,
          "internalType": "bytes32",
          "name": "reportHash",
          "type": "bytes32"
        },
        {
          "indexed": false,
          "internalType": "string",
          "name": "companyName",
          "type": "string"
        },
        {
          "indexed": false,
          "internalType": "uint256",
          "name": "timestamp",
          "type": "uint256"
        }
      ],
      "name": "ReportRegistered",
      "type": "event"
    },
    {
      "anonymous": false,
      "inputs": [
        {
          "indexed": true,
          "internalType": "bytes32",
          "name": "reportId",
          "type": "bytes32"
        },
        {
          "indexed": false,
          "internalType": "address",
          "name": "verifier",
          "type": "address"
        }
      ],
      "name": "ReportVerified",
      "type": "event"
    },
    {
      "inputs": [
        {
          "internalType": "string",
          "name": "",
          "type": "string"
        },
        {
          "internalType": "uint256",
          "name": "",
          "type": "uint256"
        }
      ],
      "name": "companyReports",
      "outputs": [
        {
          "internalType": "bytes32",
          "name": "",
          "type": "bytes32"
        }
      ],
      "stateMutability": "view",
      "type": "function"
    },
    {
      "inputs": [
        {
          "internalType": "string",
          "name": "companyName",
          "type": "string"
        }
      ],
      "name": "getCompanyReports",
      "outputs": [
        {
          "internalType": "bytes32[]",
          "name": "",
          "type": "bytes32[]"
        }
      ],
      "stateMutability": "view",
      "type": "function"
    },
    {
      "inputs": [
        {
          "internalType": "bytes32",
          "name": "reportId",
          "type": "bytes32"
        }
      ],
      "name": "getReport",
      "outputs": [
        {
          "internalType": "bytes32",
          "name": "reportHash",
          "type": "bytes32"
        },
        {
          "internalType": "uint256",
          "name": "timestamp",
          "type": "uint256"
        },
        {
          "internalType": "string",
          "name": "companyName",
          "type": "string"
        },
        {
          "internalType": "string",
          "name": "reportType",
          "type": "string"
        },
        {
          "internalType": "string",
          "name": "ipfsHash",
          "type": "string"
        },
        {
          "internalType": "bool",
          "name": "verified",
          "type": "bool"
        }
      ],
      "stateMutability": "view",
      "type": "function"
    },
    {
      "inputs": [],
      "name": "owner",
      "outputs": [
        {
          "internalType": "address",
          "name": "",
          "type": "address"
        }
      ],
      "stateMutability": "view",
      "type": "function"
    },
    {
      "inputs": [
        {
          "internalType": "bytes32",
          "name": "reportHash",
          "type": "bytes32"
        },
        {
          "internalType": "string",
          "name": "companyName",
          "type": "string"
        },
        {
          "internalType": "string",
          "name": "reportType",
          "type": "string"
        },
        {
          "internalType": "string",
          "name": "ipfsHash",
          "type": "string"
        }
      ],
      "name": "registerReport",
      "outputs": [
        {
          "internalType": "bytes32",
          "name": "",
          "type": "bytes32"
        }
      ],
      "stateMutability": "nonpayable",
      "type": "function"
    },
    {
      "inputs": [],
      "name": "renounceOwnership",
      "outputs": [],
      "stateMutability": "nonpayable",
      "type": "function"
    },
    {
      "inputs": [
        {
          "internalType": "bytes32",
          "name": "",
          "type": "bytes32"
        }
      ],
      "name": "reports",
      "outputs": [
        {
          "internalType": "bytes32",
          "name": "reportHash",
          "type": "bytes32"
        },
        {
          "internalType": "uint256",
          "name": "timestamp",
          "type": "uint256"
        },
        {
          "internalType": "string",
          "name": "companyName",
          "type": "string"
        },
        {
          "internalType": "string",
          "name": "reportType",
          "type": "string"
        },
        {
          "internalType": "string",
          "name": "ipfsHash",
          "type": "string"
        },
        {
          "internalType": "bool",
          "name": "verified",
          "type": "bool"
        }
      ],
      "stateMutability": "view",
      "type": "function"
    },
    {
      "inputs": [
        {
          "internalType": "address",
          "name": "newOwner",
          "type": "address"
        }
      ],
      "name": "transferOwnership",
      "outputs": [],
      "stateMutability": "nonpayable",
      "type": "function"
    },
    {
      "inputs": [
        {
          "internalType": "bytes32",
          "name": "reportId",
          "type": "bytes32"
        },
        {
          "internalType": "bytes32",
          "name": "hash",
          "type": "bytes32"
        }
      ],
      "name": "verifyHash",
      "outputs": [
        {
          "internalType": "bool",
          "name": "",
          "type": "bool"
        }
      ],
      "stateMutability": "view",
      "type": "function"
    },
    {
      "inputs": [
        {
          "internalType": "bytes32",
          "name": "reportId",
          "type": "bytes32"
        }
      ],
      "name": "verifyReport",
      "outputs": [],
      "stateMutability": "nonpayable",
      "type": "function"
    }
  ],
  "bytecode": "0x608060405234801561001057600080fd5b5033600073ffffffffffffffffffffffffffffffffffffffff168173ffffffffffffffffffffffffffffffffffffffff16036100845760006040517f1e4fbdf700000000000000000000000000000000000000000000000000000000815260040161007b919061019e565b60405180910390fd5b6100938161009960201b60201c565b506101b9565b60008060009054906101000a900473ffffffffffffffffffffffffffffffffffffffff169050816000806101000a81548173ffffffffffffffffffffffffffffffffffffffff021916908373ffffffffffffffffffffffffffffffffffffffff1602179055508173ffffffffffffffffffffffffffffffffffffffff168173ffffffffffffffffffffffffffffffffffffffff167f8be0079c531659141344cd1fd0a4f28419497f9722a3daafe3b4186f6b6457e060405160405180910390a35050565b600073ffffffffffffffffffffffffffffffffffffffff82169050919050565b60006101888261015d565b9050919050565b6101988161017d565b82525050565b60006020820190506101b3600083018461018f565b92915050565b61198d806101c86000396000f3fe608060405234801561001057600080fd5b506004361061009e5760003560e01c8063715018a611610066578063715018a6146101845780638da5cb5b1461018e5780639f52aacb146101ac578063b39c4897146101dc578063f2fde38b146102115761009e565b8063171c4f11146100a35780631fd22601146100d857806345437887146100f45780635ed120861461012457806361db3d2214610154575b600080fd5b6100bd60048036038101906100b89190610d7b565b61022d565b6040516100cf96959493929190610e7b565b60405180910390f35b6100f260048036038101906100ed9190610d7b565b6104b8565b005b61010e60048036038101906101099190610ef1565b6105e6565b60405161011b9190610f31565b60405180910390f35b61013e60048036038101906101399190611081565b610661565b60405161014b919061113c565b60405180910390f35b61016e60048036038101906101699190611157565b61087d565b60405161017b919061125e565b60405180910390f35b61018c6108f3565b005b610196610907565b6040516101a391906112c1565b60405180910390f35b6101c660048036038101906101c19190611308565b610930565b6040516101d3919061113c565b60405180910390f35b6101f660048036038101906101f19190610d7b565b610977565b60405161020896959493929190610e7b565b60405180910390f35b61022b60048036038101906102269190611390565b610b58565b005b6000806060806060600080600160008981526020019081526020016000206040518060c0016040529081600082015481526020016001820154815260200160028201805461027a906113ec565b80601f01602080910402602001604051908101604052809291908181526020018280546102a6906113ec565b80156102f35780601f106102c8576101008083540402835291602001916102f3565b820191906000526020600020905b8154815290600101906020018083116102d657829003601f168201915b5050505050815260200160038201805461030c906113ec565b80601f0160208091040260200160405190810160405280929190818152602001828054610338906113ec565b80156103855780601f1061035a57610100808354040283529160200191610385565b820191906000526020600020905b81548152906001019060200180831161036857829003601f168201915b5050505050815260200160048201805461039e906113ec565b80601f01602080910402602001604051908101604052809291908181526020018280546103ca906113ec565b80156104175780601f106103ec57610100808354040283529160200191610417565b820191906000526020600020905b8154815290600101906020018083116103fa57829003601f168201915b505050505081526020016005820160009054906101000a900460ff16151515158152505090506000816020015111610484576040517f08c379a000000000000000000000000000000000000000000000000000000000815260040161047b90611469565b60405180910390fd5b806000015181602001518260400151836060015184608001518560a001519650965096509650965096505091939550919395565b6104c0610bde565b6000600160008381526020019081526020016000206001015411610519576040517f08c379a000000000000000000000000000000000000000000000000000000000815260040161051090611469565b60405180910390fd5b6001600082815260200190815260200160002060050160009054906101000a900460ff161561057d576040517f08c379a0000000000000000000000000000000000000000000000000000000008152600401610574906114d5565b60405180910390fd5b600180600083815260200190815260200160002060050160006101000a81548160ff021916908315150217905550807f58ca9502e98a536e06e72d680fcc251e5d10b72291a281665a2c2dc0ac30fcc5336040516105db91906112c1565b60405180910390a250565b600080600160008581526020019081526020016000206001015411610640576040517f08c379a000000000000000000000000000000000000000000000000000000000815260040161063790611469565b60405180910390fd5b81600160008581526020019081526020016000206000015414905092915050565b6000808451116106a6576040517f08c379a000000000000000000000000000000000000000000000000000000000815260040161069d90611541565b60405180910390fd5b60008442876040516020016106bd939291906115df565b604051602081830303815290604052805190602001209050600060016000838152602001908152602001600020600101541461072e576040517f08c379a000000000000000000000000000000000000000000000000000000000815260040161072590611664565b60405180910390fd5b60006040518060c0016040528088815260200142815260200187815260200186815260200185815260200160001515815250905080600160008481526020019081526020016000206000820151816000015560208201518160010155604082015181600201908161079f9190611830565b5060608201518160030190816107b59190611830565b5060808201518160040190816107cb9190611830565b5060a08201518160050160006101000a81548160ff0219169083151502179055509050506002866040516107ff9190611902565b9081526020016040518091039020829080600181540180825580915050600190039060005260206000200160009091909190915055817f8fd860346811aece8dd79327bc4a0186662dfcee5e3d630d1a7c4e37a42ed9df88884260405161086893929190611919565b60405180910390a28192505050949350505050565b606060028260405161088f9190611902565b90815260200160405180910390208054806020026020016040519081016040528092919081815260200182805480156108e757602002820191906000526020600020905b8154815260200190600101908083116108d3575b50505050509050919050565b6108fb610bde565b6109056000610c65565b565b60008060009054906101000a900473ffffffffffffffffffffffffffffffffffffffff16905090565b600282805160208101820180518482526020830160208501208183528095505050505050818154811061096257600080fd5b90600052602060002001600091509150505481565b60016020528060005260406000206000915090508060000154908060010154908060020180546109a6906113ec565b80601f01602080910402602001604051908101604052809291908181526020018280546109d2906113ec565b8015610a1f5780601f106109f457610100808354040283529160200191610a1f565b820191906000526020600020905b815481529060010190602001808311610a0257829003601f168201915b505050505090806003018054610a34906113ec565b80601f0160208091040260200160405190810160405280929190818152602001828054610a60906113ec565b8015610aad5780601f10610a8257610100808354040283529160200191610aad565b820191906000526020600020905b815481529060010190602001808311610a9057829003601f168201915b505050505090806004018054610ac2906113ec565b80601f0160208091040260200160405190810160405280929190818152602001828054610aee906113ec565b8015610b3b5780601f10610b1057610100808354040283529160200191610b3b565b820191906000526020600020905b815481529060010190602001808311610b1e57829003601f168201915b5050505050908060050160009054906101000a900460ff16905086565b610b60610bde565b600073ffffffffffffffffffffffffffffffffffffffff168173ffffffffffffffffffffffffffffffffffffffff1603610bd25760006040517f1e4fbdf7000000000000000000000000000000000000000000000000000000008152600401610bc991906112c1565b60405180910390fd5b610bdb81610c65565b50565b610be6610d29565b73ffffffffffffffffffffffffffffffffffffffff16610c04610907565b73ffffffffffffffffffffffffffffffffffffffff1614610c6357610c27610d29565b6040517f118cdaa7000000000000000000000000000000000000000000000000000000008152600401610c5a91906112c1565b60405180910390fd5b565b60008060009054906101000a900473ffffffffffffffffffffffffffffffffffffffff169050816000806101000a81548173ffffffffffffffffffffffffffffffffffffffff021916908373ffffffffffffffffffffffffffffffffffffffff1602179055508173ffffffffffffffffffffffffffffffffffffffff168173ffffffffffffffffffffffffffffffffffffffff167f8be0079c531659141344cd1fd0a4f28419497f9722a3daafe3b4186f6b6457e060405160405180910390a35050565b600033905090565b6000604051905090565b600080fd5b600080fd5b6000819050919050565b610d5881610d45565b8114610d6357600080fd5b50565b600081359050610d7581610d4f565b92915050565b600060208284031215610d9157610d90610d3b565b5b6000610d9f84828501610d66565b91505092915050565b610db181610d45565b82525050565b6000819050919050565b610dca81610db7565b82525050565b600081519050919050565b600082825260208201905092915050565b60005b83811015610e0a578082015181840152602081019050610def565b60008484015250505050565b6000601f19601f8301169050919050565b6000610e3282610dd0565b610e3c8185610ddb565b9350610e4c818560208601610dec565b610e5581610e16565b840191505092915050565b60008115159050919050565b610e7581610e60565b82525050565b600060c082019050610e906000830189610da8565b610e9d6020830188610dc1565b8181036040830152610eaf8187610e27565b90508181036060830152610ec38186610e27565b90508181036080830152610ed78185610e27565b9050610ee660a0830184610e6c565b979650505050505050565b60008060408385031215610f0857610f07610d3b565b5b6000610f1685828601610d66565b9250506020610f2785828601610d66565b9150509250929050565b6000602082019050610f466000830184610e6c565b92915050565b600080fd5b600080fd5b7f4e487b7100000000000000000000000000000000000000000000000000000000600052604160045260246000fd5b610f8e82610e16565b810181811067ffffffffffffffff82111715610fad57610fac610f56565b5b80604052505050565b6000610fc0610d31565b9050610fcc8282610f85565b919050565b600067ffffffffffffffff821115610fec57610feb610f56565b5b610ff582610e16565b9050602081019050919050565b82818337600083830152505050565b600061102461101f84610fd1565b610fb6565b9050828152602081018484840111156110405761103f610f51565b5b61104b848285611002565b509392505050565b600082601f83011261106857611067610f4c565b5b8135611078848260208601611011565b91505092915050565b6000806000806080858703121561109b5761109a610d3b565b5b60006110a987828801610d66565b945050602085013567ffffffffffffffff8111156110ca576110c9610d40565b5b6110d687828801611053565b935050604085013567ffffffffffffffff8111156110f7576110f6610d40565b5b61110387828801611053565b925050606085013567ffffffffffffffff81111561112457611123610d40565b5b61113087828801611053565b91505092959194509250565b60006020820190506111516000830184610da8565b92915050565b60006020828403121561116d5761116c610d3b565b5b600082013567ffffffffffffffff81111561118b5761118a610d40565b5b61119784828501611053565b91505092915050565b600081519050919050565b600082825260208201905092915050565b6000819050602082019050919050565b6111d581610d45565b82525050565b60006111e783836111cc565b60208301905092915050565b6000602082019050919050565b600061120b826111a0565b61121581856111ab565b9350611220836111bc565b8060005b8381101561125157815161123888826111db565b9750611243836111f3565b925050600181019050611224565b5085935050505092915050565b600060208201905081810360008301526112788184611200565b905092915050565b600073ffffffffffffffffffffffffffffffffffffffff82169050919050565b60006112ab82611280565b9050919050565b6112bb816112a0565b82525050565b60006020820190506112d660008301846112b2565b92915050565b6112e581610db7565b81146112f057600080fd5b50565b600081359050611302816112dc565b92915050565b6000806040838503121561131f5761131e610d3b565b5b600083013567ffffffffffffffff81111561133d5761133c610d40565b5b61134985828601611053565b925050602061135a858286016112f3565b9150509250929050565b61136d816112a0565b811461137857600080fd5b50565b60008135905061138a81611364565b92915050565b6000602082840312156113a6576113a5610d3b565b5b60006113b48482850161137b565b91505092915050565b7f4e487b7100000000000000000000000000000000000000000000000000000000600052602260045260246000fd5b6000600282049050600182168061140457607f821691505b602082108103611417576114166113bd565b5b50919050565b7f5265706f727420646f6573206e6f742065786973740000000000000000000000600082015250565b6000611453601583610ddb565b915061145e8261141d565b602082019050919050565b6000602082019050818103600083015261148281611446565b9050919050565b7f5265706f727420616c7265616479207665726966696564000000000000000000600082015250565b60006114bf601783610ddb565b91506114ca82611489565b602082019050919050565b600060208201905081810360008301526114ee816114b2565b9050919050565b7f436f6d70616e79206e616d652063616e6e6f7420626520656d70747900000000600082015250565b600061152b601c83610ddb565b9150611536826114f5565b602082019050919050565b6000602082019050818103600083015261155a8161151e565b9050919050565b600081905092915050565b600061157782610dd0565b6115818185611561565b9350611591818560208601610dec565b80840191505092915050565b6000819050919050565b6115b86115b382610db7565b61159d565b82525050565b6000819050919050565b6115d96115d482610d45565b6115be565b82525050565b60006115eb828661156c565b91506115f782856115a7565b60208201915061160782846115c8565b602082019150819050949350505050565b7f5265706f727420616c7265616479207265676973746572656400000000000000600082015250565b600061164e601983610ddb565b915061165982611618565b602082019050919050565b6000602082019050818103600083015261167d81611641565b9050919050565b60008190508160005260206000209050919050565b60006020601f8301049050919050565b600082821b905092915050565b6000600883026116e67fffffffffffffffffffffffffffffffffffffffffffffffffffffffffffffffff826116a9565b6116f086836116a9565b95508019841693508086168417925050509392505050565b6000819050919050565b600061172d61172861172384610db7565b611708565b610db7565b9050919050565b6000819050919050565b61174783611712565b61175b61175382611734565b8484546116b6565b825550505050565b600090565b611770611763565b61177b81848461173e565b505050565b5b8181101561179f57611794600082611768565b600181019050611781565b5050565b601f8211156117e4576117b581611684565b6117be84611699565b810160208510156117cd578190505b6117e16117d985611699565b830182611780565b50505b505050565b600082821c905092915050565b6000611807600019846008026117e9565b1980831691505092915050565b600061182083836117f6565b9150826002028217905092915050565b61183982610dd0565b67ffffffffffffffff81111561185257611851610f56565b5b61185c82546113ec565b6118678282856117a3565b600060209050601f83116001811461189a5760008415611888578287015190505b6118928582611814565b8655506118fa565b601f1984166118a886611684565b60005b828110156118d0578489015182556001820191506020850194506020810190506118ab565b868310156118ed57848901516118e9601f8916826117f6565b8355505b6001600288020188555050505b505050505050565b600061190e828461156c565b915081905092915050565b600060608201905061192e6000830186610da8565b81810360208301526119408185610e27565b905061194f6040830184610dc1565b94935050505056fea264697066735822122008e2d352046656ca7dd18d86be8fc655bb81a178f2d30fcd97a79c8e0f8dd3f864736f6c634300081c0033",
  "linkReferences": {},
  "deployedLinkReferences": {}
}